{
  "_format": "hh3-artifact-1",
  "contractName": "YieldPilotVault",
  "sourceName": "contracts/YieldPilotVault.sol",
  "abi": [
    {
      "inputs": [],
      "stateMutability": "nonpayable",
      "type": "constructor"
    },
    {
      "inputs": [
        {
          "internalType": "address",
          "name": "spender",
          "type": "address"
        },
        {
          "internalType": "uint256",
          "name": "allowance",
          "type": "uint256"
        },
        {
          "internalType": "uint256",
          "name": "needed",
          "type": "uint256"
        }
      ],
      "name": "ERC20InsufficientAllowance",
      "type": "error"
    },
    {
      "inputs": [
        {
          "internalType": "address",
          "name": "sender",
          "type": "address"
        },
        {
          "internalType": "uint256",
          "name": "balance",
          "type": "uint256"
        },
        {
          "internalType": "uint256",
          "name": "needed",
          "type": "uint256"
        }
      ],
      "name": "ERC20InsufficientBalance",
      "type": "error"
    },
    {
      "inputs": [
        {
          "internalType": "address",
          "name": "approver",
          "type": "address"
        }
      ],
      "name": "ERC20InvalidApprover",
      "type": "error"
    },
    {
      "inputs": [
        {
          "internalType": "address",
          "name": "receiver",
          "type": "address"
        }
      ],
      "name": "ERC20InvalidReceiver",
      "type": "error"
    },
    {
      "inputs": [
        {
          "internalType": "address",
          "name": "sender",
          "type": "address"
        }
      ],
      "name": "ERC20InvalidSender",
      "type": "error"
    },
    {
      "inputs": [
        {
          "internalType": "address",
          "name": "spender",
          "type": "address"
        }
      ],
      "name": "ERC20InvalidSpender",
      "type": "error"
    },
    {
      "inputs": [
        {
          "internalType": "address",
          "name": "receiver",
          "type": "address"
        },
        {
          "internalType": "uint256",
          "name": "assets",
          "type": "uint256"
        },
        {
          "internalType": "uint256",
          "name": "max",
          "type": "uint256"
        }
      ],
      "name": "ERC4626ExceededMaxDeposit",
      "type": "error"
    },
    {
      "inputs": [
        {
          "internalType": "address",
          "name": "receiver",
          "type": "address"
        },
        {
          "internalType": "uint256",
          "name": "shares",
          "type": "uint256"
        },
        {
          "internalType": "uint256",
          "name": "max",
          "type": "uint256"
        }
      ],
      "name": "ERC4626ExceededMaxMint",
      "type": "error"
    },
    {
      "inputs": [
        {
          "internalType": "address",
          "name": "owner",
          "type": "address"
        },
        {
          "internalType": "uint256",
          "name": "shares",
          "type": "uint256"
        },
        {
          "internalType": "uint256",
          "name": "max",
          "type": "uint256"
        }
      ],
      "name": "ERC4626ExceededMaxRedeem",
      "type": "error"
    },
    {
      "inputs": [
        {
          "internalType": "address",
          "name": "owner",
          "type": "address"
        },
        {
          "internalType": "uint256",
          "name": "assets",
          "type": "uint256"
        },
        {
          "internalType": "uint256",
          "name": "max",
          "type": "uint256"
        }
      ],
      "name": "ERC4626ExceededMaxWithdraw",
      "type": "error"
    },
    {
      "inputs": [],
      "name": "EnforcedPause",
      "type": "error"
    },
    {
      "inputs": [],
      "name": "ExpectedPause",
      "type": "error"
    },
    {
      "inputs": [
        {
          "internalType": "uint256",
          "name": "requestedAssets",
          "type": "uint256"
        },
        {
          "internalType": "uint256",
          "name": "availableAssets",
          "type": "uint256"
        }
      ],
      "name": "InsufficientLiquidity",
      "type": "error"
    },
    {
      "inputs": [
        {
          "internalType": "address",
          "name": "recipient",
          "type": "address"
        }
      ],
      "name": "InvalidFeeRecipient",
      "type": "error"
    },
    {
      "inputs": [],
      "name": "InvalidInitialization",
      "type": "error"
    },
    {
      "inputs": [
        {
          "internalType": "address",
          "name": "strategy",
          "type": "address"
        }
      ],
      "name": "InvalidStrategy",
      "type": "error"
    },
    {
      "inputs": [],
      "name": "InvalidWithdrawalQueue",
      "type": "error"
    },
    {
      "inputs": [],
      "name": "NotInitializing",
      "type": "error"
    },
    {
      "inputs": [
        {
          "internalType": "address",
          "name": "owner",
          "type": "address"
        }
      ],
      "name": "OwnableInvalidOwner",
      "type": "error"
    },
    {
      "inputs": [
        {
          "internalType": "address",
          "name": "account",
          "type": "address"
        }
      ],
      "name": "OwnableUnauthorizedAccount",
      "type": "error"
    },
    {
      "inputs": [],
      "name": "OwnershipRenounceDisabled",
      "type": "error"
    },
    {
      "inputs": [],
      "name": "ReentrancyGuardReentrantCall",
      "type": "error"
    },
    {
      "inputs": [
        {
          "internalType": "address",
          "name": "token",
          "type": "address"
        }
      ],
      "name": "SafeERC20FailedOperation",
      "type": "error"
    },
    {
      "inputs": [
        {
          "internalType": "address",
          "name": "strategy",
          "type": "address"
        }
      ],
      "name": "StrategyAlreadyWhitelisted",
      "type": "error"
    },
    {
      "inputs": [
        {
          "internalType": "address",
          "name": "strategy",
          "type": "address"
        },
        {
          "internalType": "uint256",
          "name": "previousAssets",
          "type": "uint256"
        },
        {
          "internalType": "uint256",
          "name": "currentAssets",
          "type": "uint256"
        }
      ],
      "name": "StrategyLossRequiresPause",
      "type": "error"
    },
    {
      "inputs": [
        {
          "internalType": "address",
          "name": "strategy",
          "type": "address"
        }
      ],
      "name": "StrategyNotWhitelisted",
      "type": "error"
    },
    {
      "inputs": [
        {
          "internalType": "uint256",
          "name": "expectedAssets",
          "type": "uint256"
        },
        {
          "internalType": "uint256",
          "name": "actualAssets",
          "type": "uint256"
        }
      ],
      "name": "UnexpectedAssetDelta",
      "type": "error"
    },
    {
      "inputs": [
        {
          "internalType": "address",
          "name": "strategy",
          "type": "address"
        },
        {
          "internalType": "uint256",
          "name": "expectedAssets",
          "type": "uint256"
        },
        {
          "internalType": "uint256",
          "name": "actualAssets",
          "type": "uint256"
        }
      ],
      "name": "UnexpectedStrategyReportedAssets",
      "type": "error"
    },
    {
      "inputs": [
        {
          "internalType": "uint16",
          "name": "feeBps",
          "type": "uint16"
        },
        {
          "internalType": "uint16",
          "name": "maxFeeBps",
          "type": "uint16"
        }
      ],
      "name": "UnwindFeeTooHigh",
      "type": "error"
    },
    {
      "anonymous": false,
      "inputs": [
        {
          "indexed": true,
          "internalType": "address",
          "name": "owner",
          "type": "address"
        },
        {
          "indexed": true,
          "internalType": "address",
          "name": "spender",
          "type": "address"
        },
        {
          "indexed": false,
          "internalType": "uint256",
          "name": "value",
          "type": "uint256"
        }
      ],
      "name": "Approval",
      "type": "event"
    },
    {
      "anonymous": false,
      "inputs": [
        {
          "indexed": true,
          "internalType": "address",
          "name": "sender",
          "type": "address"
        },
        {
          "indexed": true,
          "internalType": "address",
          "name": "owner",
          "type": "address"
        },
        {
          "indexed": false,
          "internalType": "uint256",
          "name": "assets",
          "type": "uint256"
        },
        {
          "indexed": false,
          "internalType": "uint256",
          "name": "shares",
          "type": "uint256"
        }
      ],
      "name": "Deposit",
      "type": "event"
    },
    {
      "anonymous": false,
      "inputs": [
        {
          "indexed": false,
          "internalType": "uint64",
          "name": "version",
          "type": "uint64"
        }
      ],
      "name": "Initialized",
      "type": "event"
    },
    {
      "anonymous": false,
      "inputs": [
        {
          "indexed": true,
          "internalType": "address",
          "name": "previousOwner",
          "type": "address"
        },
        {
          "indexed": true,
          "internalType": "address",
          "name": "newOwner",
          "type": "address"
        }
      ],
      "name": "OwnershipTransferStarted",
      "type": "event"
    },
    {
      "anonymous": false,
      "inputs": [
        {
          "indexed": true,
          "internalType": "address",
          "name": "previousOwner",
          "type": "address"
        },
        {
          "indexed": true,
          "internalType": "address",
          "name": "newOwner",
          "type": "address"
        }
      ],
      "name": "OwnershipTransferred",
      "type": "event"
    },
    {
      "anonymous": false,
      "inputs": [
        {
          "indexed": false,
          "internalType": "address",
          "name": "account",
          "type": "address"
        }
      ],
      "name": "Paused",
      "type": "event"
    },
    {
      "anonymous": false,
      "inputs": [
        {
          "indexed": true,
          "internalType": "address",
          "name": "strategy",
          "type": "address"
        },
        {
          "indexed": false,
          "internalType": "uint256",
          "name": "assets",
          "type": "uint256"
        }
      ],
      "name": "StrategyAllocated",
      "type": "event"
    },
    {
      "anonymous": false,
      "inputs": [
        {
          "indexed": true,
          "internalType": "address",
          "name": "strategy",
          "type": "address"
        },
        {
          "indexed": false,
          "internalType": "uint256",
          "name": "assets",
          "type": "uint256"
        }
      ],
      "name": "StrategyRecalled",
      "type": "event"
    },
    {
      "anonymous": false,
      "inputs": [
        {
          "indexed": true,
          "internalType": "address",
          "name": "strategy",
          "type": "address"
        },
        {
          "indexed": false,
          "internalType": "uint256",
          "name": "previousAssets",
          "type": "uint256"
        },
        {
          "indexed": false,
          "internalType": "uint256",
          "name": "currentAssets",
          "type": "uint256"
        }
      ],
      "name": "StrategySynced",
      "type": "event"
    },
    {
      "anonymous": false,
      "inputs": [
        {
          "indexed": true,
          "internalType": "address",
          "name": "strategy",
          "type": "address"
        }
      ],
      "name": "StrategyWhitelisted",
      "type": "event"
    },
    {
      "anonymous": false,
      "inputs": [
        {
          "indexed": true,
          "internalType": "address",
          "name": "from",
          "type": "address"
        },
        {
          "indexed": true,
          "internalType": "address",
          "name": "to",
          "type": "address"
        },
        {
          "indexed": false,
          "internalType": "uint256",
          "name": "value",
          "type": "uint256"
        }
      ],
      "name": "Transfer",
      "type": "event"
    },
    {
      "anonymous": false,
      "inputs": [
        {
          "indexed": false,
          "internalType": "address",
          "name": "account",
          "type": "address"
        }
      ],
      "name": "Unpaused",
      "type": "event"
    },
    {
      "anonymous": false,
      "inputs": [
        {
          "indexed": true,
          "internalType": "address",
          "name": "sender",
          "type": "address"
        },
        {
          "indexed": true,
          "internalType": "address",
          "name": "receiver",
          "type": "address"
        },
        {
          "indexed": true,
          "internalType": "address",
          "name": "owner",
          "type": "address"
        },
        {
          "indexed": false,
          "internalType": "uint256",
          "name": "assets",
          "type": "uint256"
        },
        {
          "indexed": false,
          "internalType": "uint256",
          "name": "shares",
          "type": "uint256"
        }
      ],
      "name": "Withdraw",
      "type": "event"
    },
    {
      "anonymous": false,
      "inputs": [
        {
          "indexed": true,
          "internalType": "address",
          "name": "feeRecipient",
          "type": "address"
        },
        {
          "indexed": false,
          "internalType": "uint16",
          "name": "unwindFeeBps",
          "type": "uint16"
        }
      ],
      "name": "WithdrawalFeeUpdated",
      "type": "event"
    },
    {
      "anonymous": false,
      "inputs": [
        {
          "indexed": false,
          "internalType": "address[]",
          "name": "queue",
          "type": "address[]"
        }
      ],
      "name": "WithdrawalQueueUpdated",
      "type": "event"
    },
    {
      "inputs": [],
      "name": "MAX_UNWIND_FEE_BPS",
      "outputs": [
        {
          "internalType": "uint16",
          "name": "",
          "type": "uint16"
        }
      ],
      "stateMutability": "view",
      "type": "function"
    },
    {
      "inputs": [],
      "name": "acceptOwnership",
      "outputs": [],
      "stateMutability": "nonpayable",
      "type": "function"
    },
    {
      "inputs": [],
      "name": "activeStrategies",
      "outputs": [
        {
          "internalType": "address[]",
          "name": "",
          "type": "address[]"
        }
      ],
      "stateMutability": "view",
      "type": "function"
    },
    {
      "inputs": [
        {
          "internalType": "address",
          "name": "owner",
          "type": "address"
        },
        {
          "internalType": "address",
          "name": "spender",
          "type": "address"
        }
      ],
      "name": "allowance",
      "outputs": [
        {
          "internalType": "uint256",
          "name": "",
          "type": "uint256"
        }
      ],
      "stateMutability": "view",
      "type": "function"
    },
    {
      "inputs": [
        {
          "internalType": "address",
          "name": "spender",
          "type": "address"
        },
        {
          "internalType": "uint256",
          "name": "value",
          "type": "uint256"
        }
      ],
      "name": "approve",
      "outputs": [
        {
          "internalType": "bool",
          "name": "",
          "type": "bool"
        }
      ],
      "stateMutability": "nonpayable",
      "type": "function"
    },
    {
      "inputs": [],
      "name": "asset",
      "outputs": [
        {
          "internalType": "address",
          "name": "",
          "type": "address"
        }
      ],
      "stateMutability": "view",
      "type": "function"
    },
    {
      "inputs": [
        {
          "internalType": "address",
          "name": "account",
          "type": "address"
        }
      ],
      "name": "balanceOf",
      "outputs": [
        {
          "internalType": "uint256",
          "name": "",
          "type": "uint256"
        }
      ],
      "stateMutability": "view",
      "type": "function"
    },
    {
      "inputs": [
        {
          "internalType": "uint256",
          "name": "shares",
          "type": "uint256"
        }
      ],
      "name": "convertToAssets",
      "outputs": [
        {
          "internalType": "uint256",
          "name": "",
          "type": "uint256"
        }
      ],
      "stateMutability": "view",
      "type": "function"
    },
    {
      "inputs": [
        {
          "internalType": "uint256",
          "name": "assets",
          "type": "uint256"
        }
      ],
      "name": "convertToShares",
      "outputs": [
        {
          "internalType": "uint256",
          "name": "",
          "type": "uint256"
        }
      ],
      "stateMutability": "view",
      "type": "function"
    },
    {
      "inputs": [],
      "name": "decimals",
      "outputs": [
        {
          "internalType": "uint8",
          "name": "",
          "type": "uint8"
        }
      ],
      "stateMutability": "view",
      "type": "function"
    },
    {
      "inputs": [
        {
          "internalType": "address",
          "name": "strategy",
          "type": "address"
        },
        {
          "internalType": "uint256",
          "name": "assets",
          "type": "uint256"
        }
      ],
      "name": "deployToStrategy",
      "outputs": [
        {
          "internalType": "uint256",
          "name": "deployedAssets",
          "type": "uint256"
        }
      ],
      "stateMutability": "nonpayable",
      "type": "function"
    },
    {
      "inputs": [
        {
          "internalType": "uint256",
          "name": "assets",
          "type": "uint256"
        },
        {
          "internalType": "address",
          "name": "receiver",
          "type": "address"
        }
      ],
      "name": "deposit",
      "outputs": [
        {
          "internalType": "uint256",
          "name": "",
          "type": "uint256"
        }
      ],
      "stateMutability": "nonpayable",
      "type": "function"
    },
    {
      "inputs": [
        {
          "internalType": "address",
          "name": "depositor",
          "type": "address"
        },
        {
          "internalType": "address",
          "name": "receiver",
          "type": "address"
        },
        {
          "internalType": "address",
          "name": "strategy",
          "type": "address"
        },
        {
          "internalType": "uint256",
          "name": "assets",
          "type": "uint256"
        }
      ],
      "name": "depositAndDeployToStrategyFor",
      "outputs": [
        {
          "internalType": "uint256",
          "name": "shares",
          "type": "uint256"
        },
        {
          "internalType": "uint256",
          "name": "deployedAssets",
          "type": "uint256"
        }
      ],
      "stateMutability": "nonpayable",
      "type": "function"
    },
    {
      "inputs": [],
      "name": "feeRecipient",
      "outputs": [
        {
          "internalType": "address",
          "name": "",
          "type": "address"
        }
      ],
      "stateMutability": "view",
      "type": "function"
    },
    {
      "inputs": [],
      "name": "idleAssets",
      "outputs": [
        {
          "internalType": "uint256",
          "name": "",
          "type": "uint256"
        }
      ],
      "stateMutability": "view",
      "type": "function"
    },
    {
      "inputs": [
        {
          "internalType": "address",
          "name": "asset_",
          "type": "address"
        },
        {
          "internalType": "string",
          "name": "name_",
          "type": "string"
        },
        {
          "internalType": "string",
          "name": "symbol_",
          "type": "string"
        },
        {
          "internalType": "address",
          "name": "owner_",
          "type": "address"
        }
      ],
      "name": "initialize",
      "outputs": [],
      "stateMutability": "nonpayable",
      "type": "function"
    },
    {
      "inputs": [
        {
          "internalType": "address",
          "name": "",
          "type": "address"
        }
      ],
      "name": "isWhitelistedStrategy",
      "outputs": [
        {
          "internalType": "bool",
          "name": "",
          "type": "bool"
        }
      ],
      "stateMutability": "view",
      "type": "function"
    },
    {
      "inputs": [
        {
          "internalType": "address",
          "name": "receiver",
          "type": "address"
        }
      ],
      "name": "maxDeposit",
      "outputs": [
        {
          "internalType": "uint256",
          "name": "",
          "type": "uint256"
        }
      ],
      "stateMutability": "view",
      "type": "function"
    },
    {
      "inputs": [
        {
          "internalType": "address",
          "name": "receiver",
          "type": "address"
        }
      ],
      "name": "maxMint",
      "outputs": [
        {
          "internalType": "uint256",
          "name": "",
          "type": "uint256"
        }
      ],
      "stateMutability": "view",
      "type": "function"
    },
    {
      "inputs": [
        {
          "internalType": "address",
          "name": "owner",
          "type": "address"
        }
      ],
      "name": "maxRedeem",
      "outputs": [
        {
          "internalType": "uint256",
          "name": "",
          "type": "uint256"
        }
      ],
      "stateMutability": "view",
      "type": "function"
    },
    {
      "inputs": [
        {
          "internalType": "address",
          "name": "owner",
          "type": "address"
        }
      ],
      "name": "maxWithdraw",
      "outputs": [
        {
          "internalType": "uint256",
          "name": "",
          "type": "uint256"
        }
      ],
      "stateMutability": "view",
      "type": "function"
    },
    {
      "inputs": [
        {
          "internalType": "uint256",
          "name": "shares",
          "type": "uint256"
        },
        {
          "internalType": "address",
          "name": "receiver",
          "type": "address"
        }
      ],
      "name": "mint",
      "outputs": [
        {
          "internalType": "uint256",
          "name": "",
          "type": "uint256"
        }
      ],
      "stateMutability": "nonpayable",
      "type": "function"
    },
    {
      "inputs": [],
      "name": "name",
      "outputs": [
        {
          "internalType": "string",
          "name": "",
          "type": "string"
        }
      ],
      "stateMutability": "view",
      "type": "function"
    },
    {
      "inputs": [],
      "name": "owner",
      "outputs": [
        {
          "internalType": "address",
          "name": "",
          "type": "address"
        }
      ],
      "stateMutability": "view",
      "type": "function"
    },
    {
      "inputs": [],
      "name": "pause",
      "outputs": [],
      "stateMutability": "nonpayable",
      "type": "function"
    },
    {
      "inputs": [],
      "name": "paused",
      "outputs": [
        {
          "internalType": "bool",
          "name": "",
          "type": "bool"
        }
      ],
      "stateMutability": "view",
      "type": "function"
    },
    {
      "inputs": [],
      "name": "pendingOwner",
      "outputs": [
        {
          "internalType": "address",
          "name": "",
          "type": "address"
        }
      ],
      "stateMutability": "view",
      "type": "function"
    },
    {
      "inputs": [
        {
          "internalType": "uint256",
          "name": "assets",
          "type": "uint256"
        }
      ],
      "name": "previewDeposit",
      "outputs": [
        {
          "internalType": "uint256",
          "name": "",
          "type": "uint256"
        }
      ],
      "stateMutability": "view",
      "type": "function"
    },
    {
      "inputs": [
        {
          "internalType": "uint256",
          "name": "shares",
          "type": "uint256"
        }
      ],
      "name": "previewMint",
      "outputs": [
        {
          "internalType": "uint256",
          "name": "",
          "type": "uint256"
        }
      ],
      "stateMutability": "view",
      "type": "function"
    },
    {
      "inputs": [
        {
          "internalType": "uint256",
          "name": "shares",
          "type": "uint256"
        }
      ],
      "name": "previewRedeem",
      "outputs": [
        {
          "internalType": "uint256",
          "name": "",
          "type": "uint256"
        }
      ],
      "stateMutability": "view",
      "type": "function"
    },
    {
      "inputs": [
        {
          "internalType": "uint256",
          "name": "requestedAssets",
          "type": "uint256"
        }
      ],
      "name": "previewSettlement",
      "outputs": [
        {
          "internalType": "uint256",
          "name": "availableNow",
          "type": "uint256"
        },
        {
          "internalType": "uint256",
          "name": "needsUnwind",
          "type": "uint256"
        }
      ],
      "stateMutability": "view",
      "type": "function"
    },
    {
      "inputs": [
        {
          "internalType": "uint256",
          "name": "assets",
          "type": "uint256"
        }
      ],
      "name": "previewWithdraw",
      "outputs": [
        {
          "internalType": "uint256",
          "name": "",
          "type": "uint256"
        }
      ],
      "stateMutability": "view",
      "type": "function"
    },
    {
      "inputs": [
        {
          "internalType": "uint256",
          "name": "requestedAssets",
          "type": "uint256"
        }
      ],
      "name": "previewWithdrawalFee",
      "outputs": [
        {
          "internalType": "uint256",
          "name": "availableNow",
          "type": "uint256"
        },
        {
          "internalType": "uint256",
          "name": "needsUnwind",
          "type": "uint256"
        },
        {
          "internalType": "uint256",
          "name": "feeAssets",
          "type": "uint256"
        }
      ],
      "stateMutability": "view",
      "type": "function"
    },
    {
      "inputs": [
        {
          "internalType": "address",
          "name": "strategy",
          "type": "address"
        },
        {
          "internalType": "uint256",
          "name": "assets",
          "type": "uint256"
        }
      ],
      "name": "recallFromStrategy",
      "outputs": [
        {
          "internalType": "uint256",
          "name": "recalledAssets",
          "type": "uint256"
        }
      ],
      "stateMutability": "nonpayable",
      "type": "function"
    },
    {
      "inputs": [
        {
          "internalType": "uint256",
          "name": "shares",
          "type": "uint256"
        },
        {
          "internalType": "address",
          "name": "receiver",
          "type": "address"
        },
        {
          "internalType": "address",
          "name": "owner",
          "type": "address"
        }
      ],
      "name": "redeem",
      "outputs": [
        {
          "internalType": "uint256",
          "name": "",
          "type": "uint256"
        }
      ],
      "stateMutability": "nonpayable",
      "type": "function"
    },
    {
      "inputs": [],
      "name": "renounceOwnership",
      "outputs": [],
      "stateMutability": "pure",
      "type": "function"
    },
    {
      "inputs": [
        {
          "internalType": "address",
          "name": "feeRecipient_",
          "type": "address"
        },
        {
          "internalType": "uint16",
          "name": "unwindFeeBps_",
          "type": "uint16"
        }
      ],
      "name": "setWithdrawalFee",
      "outputs": [],
      "stateMutability": "nonpayable",
      "type": "function"
    },
    {
      "inputs": [
        {
          "internalType": "address[]",
          "name": "queue",
          "type": "address[]"
        }
      ],
      "name": "setWithdrawalQueue",
      "outputs": [],
      "stateMutability": "nonpayable",
      "type": "function"
    },
    {
      "inputs": [],
      "name": "strategies",
      "outputs": [
        {
          "internalType": "address[]",
          "name": "",
          "type": "address[]"
        }
      ],
      "stateMutability": "view",
      "type": "function"
    },
    {
      "inputs": [
        {
          "internalType": "address",
          "name": "",
          "type": "address"
        }
      ],
      "name": "strategyAssets",
      "outputs": [
        {
          "internalType": "uint256",
          "name": "",
          "type": "uint256"
        }
      ],
      "stateMutability": "view",
      "type": "function"
    },
    {
      "inputs": [],
      "name": "symbol",
      "outputs": [
        {
          "internalType": "string",
          "name": "",
          "type": "string"
        }
      ],
      "stateMutability": "view",
      "type": "function"
    },
    {
      "inputs": [
        {
          "internalType": "address",
          "name": "strategy",
          "type": "address"
        }
      ],
      "name": "syncStrategyAssets",
      "outputs": [
        {
          "internalType": "uint256",
          "name": "currentAssets",
          "type": "uint256"
        }
      ],
      "stateMutability": "nonpayable",
      "type": "function"
    },
    {
      "inputs": [],
      "name": "totalAllocatedAssets",
      "outputs": [
        {
          "internalType": "uint256",
          "name": "",
          "type": "uint256"
        }
      ],
      "stateMutability": "view",
      "type": "function"
    },
    {
      "inputs": [],
      "name": "totalAssets",
      "outputs": [
        {
          "internalType": "uint256",
          "name": "",
          "type": "uint256"
        }
      ],
      "stateMutability": "view",
      "type": "function"
    },
    {
      "inputs": [],
      "name": "totalStrategyAssets",
      "outputs": [
        {
          "internalType": "uint256",
          "name": "total",
          "type": "uint256"
        }
      ],
      "stateMutability": "view",
      "type": "function"
    },
    {
      "inputs": [],
      "name": "totalSupply",
      "outputs": [
        {
          "internalType": "uint256",
          "name": "",
          "type": "uint256"
        }
      ],
      "stateMutability": "view",
      "type": "function"
    },
    {
      "inputs": [
        {
          "internalType": "address",
          "name": "to",
          "type": "address"
        },
        {
          "internalType": "uint256",
          "name": "value",
          "type": "uint256"
        }
      ],
      "name": "transfer",
      "outputs": [
        {
          "internalType": "bool",
          "name": "",
          "type": "bool"
        }
      ],
      "stateMutability": "nonpayable",
      "type": "function"
    },
    {
      "inputs": [
        {
          "internalType": "address",
          "name": "from",
          "type": "address"
        },
        {
          "internalType": "address",
          "name": "to",
          "type": "address"
        },
        {
          "internalType": "uint256",
          "name": "value",
          "type": "uint256"
        }
      ],
      "name": "transferFrom",
      "outputs": [
        {
          "internalType": "bool",
          "name": "",
          "type": "bool"
        }
      ],
      "stateMutability": "nonpayable",
      "type": "function"
    },
    {
      "inputs": [
        {
          "internalType": "address",
          "name": "newOwner",
          "type": "address"
        }
      ],
      "name": "transferOwnership",
      "outputs": [],
      "stateMutability": "nonpayable",
      "type": "function"
    },
    {
      "inputs": [],
      "name": "unpause",
      "outputs": [],
      "stateMutability": "nonpayable",
      "type": "function"
    },
    {
      "inputs": [],
      "name": "unwindFeeBps",
      "outputs": [
        {
          "internalType": "uint16",
          "name": "",
          "type": "uint16"
        }
      ],
      "stateMutability": "view",
      "type": "function"
    },
    {
      "inputs": [],
      "name": "version",
      "outputs": [
        {
          "internalType": "string",
          "name": "",
          "type": "string"
        }
      ],
      "stateMutability": "pure",
      "type": "function"
    },
    {
      "inputs": [
        {
          "internalType": "address",
          "name": "strategy",
          "type": "address"
        }
      ],
      "name": "whitelistStrategy",
      "outputs": [],
      "stateMutability": "nonpayable",
      "type": "function"
    },
    {
      "inputs": [
        {
          "internalType": "uint256",
          "name": "assets",
          "type": "uint256"
        },
        {
          "internalType": "address",
          "name": "receiver",
          "type": "address"
        },
        {
          "internalType": "address",
          "name": "owner",
          "type": "address"
        }
      ],
      "name": "withdraw",
      "outputs": [
        {
          "internalType": "uint256",
          "name": "",
          "type": "uint256"
        }
      ],
      "stateMutability": "nonpayable",
      "type": "function"
    },
    {
      "inputs": [],
      "name": "withdrawalQueue",
      "outputs": [
        {
          "internalType": "address[]",
          "name": "",
          "type": "address[]"
        }
      ],
      "stateMutability": "view",
      "type": "function"
    }
  ],
  "bytecode": "0x608060405234801561000f575f5ffd5b5060017f9b779b17422d0df92223018b32b4d1fa46e071723d6817e2486d003becc55f005561003c610041565b6100f3565b7ff0c57e16840df040f15088dc2f81fe391c3923bec73e23a9662efc9c229c6a00805468010000000000000000900460ff16156100915760405163f92ee8a960e01b815260040160405180910390fd5b80546001600160401b03908116146100f05780546001600160401b0319166001600160401b0390811782556040519081527fc7f505b2f371ae2175ee4913f4499e1f2633a7b5936321eed1cdaeb6115181d29060200160405180910390a15b50565b613c4f806101005f395ff3fe608060405234801561000f575f5ffd5b506004361061034d575f3560e01c8063821a622f116101c9578063ba087652116100fe578063dd62ed3e1161009e578063ef8b30f711610079578063ef8b30f7146106c5578063f2fde38b1461073c578063f3b4fd821461074f578063f6c00db914610758575f5ffd5b8063dd62ed3e14610719578063e16b03a31461072c578063e30c397814610734575f5ffd5b8063c85d590c116100d9578063c85d590c146106d8578063ce96cb77146106eb578063d905777e146106fe578063d9f9027f14610711575f5ffd5b8063ba087652146106b2578063c63d75b61461048f578063c6e6f592146106c5575f5ffd5b80639a0b07ec11610169578063ac579b7711610144578063ac579b7714610666578063ae77425614610679578063b3d7f6b91461068c578063b460af941461069f575f5ffd5b80639a0b07ec14610609578063a192c28814610631578063a9059cbb14610653575f5ffd5b80638da5cb5b116101a45780638da5cb5b146105de5780638e57fd9d146105e657806394bf804d146105ee57806395d89b4114610601575f5ffd5b8063821a622f146105a05780638456cb59146105a85780638995630e146105b0575f5ffd5b8063402d267d1161029f5780635c975abb1161023f5780636e553f651161021a5780636e553f651461056a57806370a082311461057d578063715018a61461059057806379ba509714610598575f5ffd5b80635c975abb1461052d578063613d25bb146105445780636301727b14610557575f5ffd5b8063469048401161027a57806346904840146104be5780634cdad506146104d15780634d4a03be146104e457806354fd4d501461050c575f5ffd5b8063402d267d1461048f57806341d6d755146104a257806343ff28f3146104ab575f5ffd5b80631041cc641161030a578063313ce567116102e5578063313ce5671461043657806337d5fe991461045057806338d52e0f146104655780633f4ba83a14610485575f5ffd5b80631041cc64146103dd57806318160ddd146103fc57806323b872dd14610423575f5ffd5b806301e1d1141461035157806306fdde031461036c57806307a2d13a14610381578063095ea7b3146103945780630a28a477146103b75780630cafde1e146103ca575b5f5ffd5b61035961076b565b6040519081526020015b60405180910390f35b6103746107ee565b6040516103639190613424565b61035961038f366004613459565b6108ae565b6103a76103a2366004613484565b6108bf565b6040519015158152602001610363565b6103596103c5366004613459565b6108d6565b6103596103d83660046134ae565b610904565b6103596103eb3660046134ae565b60046020525f908152604090205481565b7f52c63247e1f47db19d5ce0460030c497f067ca4cebf71ba98eeadabe20bace0254610359565b6103a76104313660046134c9565b610ace565b61043e610af1565b60405160ff9091168152602001610363565b610458610afa565b6040516103639190613507565b61046d610b5a565b6040516001600160a01b039091168152602001610363565b61048d610b8e565b005b61035961049d3660046134ae565b610ba0565b61035960075481565b6103596104b9366004613484565b610bcc565b60085461046d906001600160a01b031681565b6103596104df366004613459565b610e0a565b6008546104f990600160a01b900461ffff1681565b60405161ffff9091168152602001610363565b6040805180820190915260058152640312e302e360dc1b6020820152610374565b5f516020613bda5f395f51905f525460ff166103a7565b61048d6105523660046135f1565b610e8e565b61048d61056536600461367a565b610fd9565b6103596105783660046136b7565b6110b0565b61035961058b3660046134ae565b6110db565b61048d611101565b61048d61111a565b610458611162565b61048d6111c0565b6105c36105be366004613459565b6111d0565b60408051938452602084019290925290820152606001610363565b61046d6111f6565b600754610359565b6103596105fc3660046136b7565b61121e565b610374611231565b61061c6106173660046136da565b61126f565b60408051928352602083019190915201610363565b6103a761063f3660046134ae565b5f6020819052908152604090205460ff1681565b6103a7610661366004613484565b611508565b61048d610674366004613728565b611515565b61048d6106873660046134ae565b61152b565b61035961069a366004613459565b6115f7565b6103596106ad366004613799565b611603565b6103596106c0366004613799565b61162f565b6103596106d3366004613459565b611643565b61061c6106e6366004613459565b61164e565b6103596106f93660046134ae565b61168b565b61035961070c3660046134ae565b611694565b61045861169e565b6103596107273660046137d8565b6116fc565b610359611745565b61046d6117b6565b61048d61074a3660046134ae565b6117de565b6104f96103e881565b610359610766366004613484565b611863565b5f600754610777610b5a565b6040516370a0823160e01b81523060048201526001600160a01b0391909116906370a0823190602401602060405180830381865afa1580156107bb573d5f5f3e3d5ffd5b505050506040513d601f19601f820116820180604052508101906107df9190613804565b6107e9919061382f565b905090565b7f52c63247e1f47db19d5ce0460030c497f067ca4cebf71ba98eeadabe20bace0380546060915f516020613bba5f395f51905f529161082c90613842565b80601f016020809104026020016040519081016040528092919081815260200182805461085890613842565b80156108a35780601f1061087a576101008083540402835291602001916108a3565b820191905f5260205f20905b81548152906001019060200180831161088657829003601f168201915b505050505091505090565b5f6108b9825f611aba565b92915050565b5f336108cc818585611b11565b5060019392505050565b5f5f6108e9836108e4611745565b611b23565b90506108fd6108f8828561382f565b611b6a565b9392505050565b5f61090d611b76565b610915611ba8565b6001600160a01b0382165f9081526020819052604090205460ff1661095d57604051634f6f6ef760e01b81526001600160a01b03831660048201526024015b60405180910390fd5b6001600160a01b0382165f818152600460208181526040928390205483516278744560e21b815293519094936301e1d114938181019392918290030181865afa1580156109ac573d5f5f3e3d5ffd5b505050506040513d601f19601f820116820180604052508101906109d09190613804565b915080821080156109f057505f516020613bda5f395f51905f525460ff16155b15610a1457828183604051639d07efa960e01b81526004016109549392919061387a565b6001600160a01b0383165f908152600460205260408120839055829003610a4357610a3e83611bc3565b610a4c565b610a4c83611ce5565b808210610a625760078054828403019055610a6e565b60078054838303900390555b60408051828152602081018490526001600160a01b038516917fa30b3ff937627ff2312730a49d1625b0b3209ad2868fbc71632d5b778f6437ec910160405180910390a250610ac960015f516020613bfa5f395f51905f5255565b919050565b5f33610adb858285611dae565b610ae6858585611df9565b506001949350505050565b5f6107e9611e56565b60606003805480602002602001604051908101604052809291908181526020018280548015610b5057602002820191905f5260205f20905b81546001600160a01b03168152600190910190602001808311610b32575b5050505050905090565b5f807f0773e532dfede91f04b12a73d3d2acd361424f41f76b4fb79f090161e36b4e005b546001600160a01b031692915050565b610b96611b76565b610b9e611e98565b565b5f610bb95f516020613bda5f395f51905f525460ff1690565b15610bc557505f919050565b5f196108b9565b5f610bd5611b76565b610bdd611ba8565b6001600160a01b0383165f9081526020819052604090205460ff16610c2057604051634f6f6ef760e01b81526001600160a01b0384166004820152602401610954565b5f610c29610b5a565b6040516370a0823160e01b81523060048201529091505f906001600160a01b038316906370a0823190602401602060405180830381865afa158015610c70573d5f5f3e3d5ffd5b505050506040513d601f19601f82011682018060405250810190610c949190613804565b60405163040b850f60e31b8152306004820152602481018690529091505f906001600160a01b0387169063205c2878906044016020604051808303815f875af1158015610ce3573d5f5f3e3d5ffd5b505050506040513d601f19601f82011682018060405250810190610d079190613804565b6040516370a0823160e01b815230600482015290915082906001600160a01b038516906370a0823190602401602060405180830381865afa158015610d4e573d5f5f3e3d5ffd5b505050506040513d601f19601f82011682018060405250810190610d729190613804565b610d7c919061389b565b9350808414610da457858482604051635b1fc08360e01b81526004016109549392919061387a565b610dae8685611ef7565b856001600160a01b03167f619fbd66efbfaf8160311e4e743f5f6e3f156f9eab059f6f270a7a61e76e42f085604051610de991815260200190565b60405180910390a25050506108b960015f516020613bfa5f395f51905f5255565b5f5f610e15836108ae565b90505f610e20611745565b9050808211610e30575092915050565b600854600160a01b900461ffff165f819003610e4f5750909392505050565b610e5b8161271061382f565b610e6582846138ae565b610e71856127106138ae565b610e7b919061382f565b610e8591906138d9565b95945050505050565b5f610e97611f78565b805490915060ff600160401b820416159067ffffffffffffffff165f81158015610ebe5750825b90505f8267ffffffffffffffff166001148015610eda5750303b155b905081158015610ee8575080155b15610f065760405163f92ee8a960e01b815260040160405180910390fd5b845467ffffffffffffffff191660011785558315610f3057845460ff60401b1916600160401b1785555b610f3a8888611fa0565b610f4389611fb2565b610f4c86611fc3565b610f54611fd4565b610f5c611fd4565b60015f516020613bfa5f395f51905f5255600880546001600160a01b0319166001600160a01b0388161790558315610fce57845460ff60401b19168555604051600181527fc7f505b2f371ae2175ee4913f4499e1f2633a7b5936321eed1cdaeb6115181d29060200160405180910390a15b505050505050505050565b610fe1611b76565b6001600160a01b03821661101357604051633e0288fb60e21b81526001600160a01b0383166004820152602401610954565b6103e861ffff8216111561104857604051630a16b8fd60e41b815261ffff821660048201526103e86024820152604401610954565b600880546001600160a01b0384166001600160b01b03199091168117600160a01b61ffff851690810291909117909255604051918252907ff6287bcc50b9e21d3219ca4874c93cdd78a4fa1c3a18639e022fd8b0065a36739060200160405180910390a25050565b5f6110b9611ba8565b6110c38383611fdc565b90506108b960015f516020613bfa5f395f51905f5255565b6001600160a01b03165f9081525f516020613bba5f395f51905f52602052604090205490565b604051631ef88dcb60e11b815260040160405180910390fd5b33806111246117b6565b6001600160a01b0316146111565760405163118cdaa760e01b81526001600160a01b0382166004820152602401610954565b61115f81612030565b50565b60606002805480602002602001604051908101604052809291908181526020018280548015610b5057602002820191905f5260205f209081546001600160a01b03168152600190910190602001808311610b32575050505050905090565b6111c8611b76565b610b9e612068565b5f5f5f5f6111dc611745565b90506111e885826120b0565b919790965090945092505050565b5f807f9016d09d72d40fdae2fd8ceac6b6234c7706214fd39c1cd1e609a0528c199300610b7e565b5f611227611ba8565b6110c38383612127565b7f52c63247e1f47db19d5ce0460030c497f067ca4cebf71ba98eeadabe20bace0480546060915f516020613bba5f395f51905f529161082c90613842565b5f5f611279611ba8565b611281612173565b6001600160a01b0384165f9081526020819052604090205460ff166112c457604051634f6f6ef760e01b81526001600160a01b0385166004820152602401610954565b6112cd83611643565b91506112db868685856121a3565b5f6112e4610b5a565b6040516370a0823160e01b81526001600160a01b0387811660048301529192505f918316906370a0823190602401602060405180830381865afa15801561132d573d5f5f3e3d5ffd5b505050506040513d601f19601f820116820180604052508101906113519190613804565b90506113676001600160a01b0383168787612337565b6040516370a0823160e01b81526001600160a01b0387811660048301525f9183918516906370a0823190602401602060405180830381865afa1580156113af573d5f5f3e3d5ffd5b505050506040513d601f19601f820116820180604052508101906113d39190613804565b6113dd919061389b565b905085811461140957604051633c0e360160e21b81526004810187905260248101829052604401610954565b60405163b6b55f2560e01b8152600481018290526001600160a01b0388169063b6b55f25906024016020604051808303815f875af115801561144d573d5f5f3e3d5ffd5b505050506040513d601f19601f820116820180604052508101906114719190613804565b935080841461149957868185604051635b1fc08360e01b81526004016109549392919061387a565b6114a3878561236c565b866001600160a01b03167fe0891f411f6f2912bfe7f0d8ce9304c1017fc1a451848763f197c95a89d45dc0856040516114de91815260200190565b60405180910390a25050506114ff60015f516020613bfa5f395f51905f5255565b94509492505050565b5f336108cc818585611df9565b61151d611b76565b61152782826123c7565b5050565b611533611b76565b5f61153c610b5a565b90506001600160a01b03821615806115c55750806001600160a01b0316826001600160a01b03166338d52e0f6040518163ffffffff1660e01b8152600401602060405180830381865afa158015611595573d5f5f3e3d5ffd5b505050506040513d601f19601f820116820180604052508101906115b991906138ec565b6001600160a01b031614155b156115ee57604051633ae252cd60e21b81526001600160a01b0383166004820152602401610954565b61152782612581565b5f6108b9826001611aba565b5f61160c611ba8565b61161784848461264f565b90506108fd60015f516020613bfa5f395f51905f5255565b5f611638611ba8565b61161784848461269c565b5f6108b9825f6126e9565b5f5f5f611659611745565b9050808410611668578061166a565b835b9250808411611679575f611683565b611683818561389b565b915050915091565b5f6108b96104df835b5f6108b9826110db565b60606001805480602002602001604051908101604052809291908181526020018280548015610b5057602002820191905f5260205f209081546001600160a01b03168152600190910190602001808311610b32575050505050905090565b6001600160a01b039182165f9081527f52c63247e1f47db19d5ce0460030c497f067ca4cebf71ba98eeadabe20bace016020908152604080832093909416825291909152205490565b5f61174e610b5a565b6040516370a0823160e01b81523060048201526001600160a01b0391909116906370a0823190602401602060405180830381865afa158015611792573d5f5f3e3d5ffd5b505050506040513d601f19601f820116820180604052508101906107e99190613804565b5f807f237e158222e3e6968b72b9db0d8043aacf074ad9f650f0d1606b4d82ee432c00610b7e565b6117e6611b76565b7f237e158222e3e6968b72b9db0d8043aacf074ad9f650f0d1606b4d82ee432c0080546001600160a01b0319166001600160a01b038316908117825561182a6111f6565b6001600160a01b03167f38d16b8cac22d99fc7c124b9cd0de2d3fa1faef420bfe791d8c362d765e2270060405160405180910390a35050565b5f61186c611ba8565b611874612173565b6001600160a01b0383165f9081526020819052604090205460ff166118b757604051634f6f6ef760e01b81526001600160a01b0384166004820152602401610954565b5f6118c0610b5a565b6040516370a0823160e01b81526001600160a01b0386811660048301529192505f918316906370a0823190602401602060405180830381865afa158015611909573d5f5f3e3d5ffd5b505050506040513d601f19601f8201168201806040525081019061192d9190613804565b90506119436001600160a01b0383168686612337565b6040516370a0823160e01b81526001600160a01b0386811660048301525f9183918516906370a0823190602401602060405180830381865afa15801561198b573d5f5f3e3d5ffd5b505050506040513d601f19601f820116820180604052508101906119af9190613804565b6119b9919061389b565b90508481146119e557604051633c0e360160e21b81526004810186905260248101829052604401610954565b60405163b6b55f2560e01b8152600481018290526001600160a01b0387169063b6b55f25906024016020604051808303815f875af1158015611a29573d5f5f3e3d5ffd5b505050506040513d601f19601f82011682018060405250810190611a4d9190613804565b9350808414611a7557858185604051635b1fc08360e01b81526004016109549392919061387a565b611a7f868561236c565b856001600160a01b03167fe0891f411f6f2912bfe7f0d8ce9304c1017fc1a451848763f197c95a89d45dc085604051610de991815260200190565b5f6108fd611ac661076b565b611ad190600161382f565b611adc5f600a6139ea565b7f52c63247e1f47db19d5ce0460030c497f067ca4cebf71ba98eeadabe20bace0254611b08919061382f565b85919085612737565b611b1e8383836001612779565b505050565b5f5f611b2f84846120b0565b50600854909250600160a01b900461ffff169050811580611b4e575080155b15611b5d575f925050506108b9565b612710610e7b82846138ae565b5f6108b98260016126e9565b33611b7f6111f6565b6001600160a01b031614610b9e5760405163118cdaa760e01b8152336004820152602401610954565b611bb061285d565b60025f516020613bfa5f395f51905f5255565b6001600160a01b0381165f9081526005602052604081205490819003611be7575050565b5f611bf360018361389b565b6002549091505f90611c079060019061389b565b9050808214611c8c575f60028281548110611c2457611c246139f8565b5f91825260209091200154600280546001600160a01b039092169250829185908110611c5257611c526139f8565b5f91825260208083209190910180546001600160a01b0319166001600160a01b039485161790559290911681526005909152604090208390555b6002805480611c9d57611c9d613a0c565b5f828152602080822083015f1990810180546001600160a01b03191690559092019092556001600160a01b0386168252600590526040812055611cdf8461288c565b50505050565b6001600160a01b0381165f9081526005602052604090205415611d055750565b60028054600180820183557f405787fa12a823e0f2b7631cc41b3ba8828b3321ca811111fa75cd3aa3bb5ace90910180546001600160a01b03199081166001600160a01b039590951694851790915591545f848152600560209081526040808320939093556003805494850181557fc2575a0e9e593c00f959f8c92f12db2869c3395a3b0502d05e2516446f71f85b909401805490951690951790935590546006909352902055565b5f611db984846116fc565b90505f19811015611cdf5781811015611deb57828183604051637dc7a0d960e11b81526004016109549392919061387a565b611cdf84848484035f612779565b6001600160a01b038316611e2257604051634b637e8f60e11b81525f6004820152602401610954565b6001600160a01b038216611e4b5760405163ec442f0560e01b81525f6004820152602401610954565b611b1e8383836129d2565b5f807f0773e532dfede91f04b12a73d3d2acd361424f41f76b4fb79f090161e36b4e0090505f8154611e929190600160a01b900460ff16613a20565b91505090565b611ea0612af8565b5f516020613bda5f395f51905f52805460ff191681557f5db9ee0a495bf2e6ff9c91a7834c1ba4fdd244a5e8aa4e537bd38aeae4b073aa335b6040516001600160a01b03909116815260200160405180910390a150565b805f03611f02575050565b6001600160a01b0382165f9081526004602052604081205490828211611f28575f611f32565b611f32838361389b565b6001600160a01b0385165f9081526004602052604090208190559050818311611f5b5782611f5d565b815b600780549190910390555f819003611cdf57611cdf84611bc3565b5f807ff0c57e16840df040f15088dc2f81fe391c3923bec73e23a9662efc9c229c6a006108b9565b611fa8612b27565b6115278282612b4c565b611fba612b27565b61115f81612b9c565b611fcb612b27565b61115f81612c1f565b610b9e612b27565b5f5f611fe783610ba0565b90508084111561201057828482604051633c8097d960e11b81526004016109549392919061387a565b5f61201a85611643565b9050612028338587846121a3565b949350505050565b7f237e158222e3e6968b72b9db0d8043aacf074ad9f650f0d1606b4d82ee432c0080546001600160a01b031916815561152782612c50565b612070612173565b5f516020613bda5f395f51905f52805460ff191660011781557f62e78cea01bee320cd4e420270b5ea74000d11b0c9f74754ebdbfc544b05a25833611ed9565b5f5f5f8385106120c057836120c2565b845b92508385116120d1575f6120db565b6120db848661389b565b600854909250600160a01b900461ffff168215806120f7575080155b1561210557505f9050612120565b61271061211282856138ae565b61211c91906138d9565b9150505b9250925092565b5f5f61213283610ba0565b90508084111561215b5782848260405163284ff66760e01b81526004016109549392919061387a565b5f612165856115f7565b9050612028338583886121a3565b5f516020613bda5f395f51905f525460ff1615610b9e5760405163d93c066560e01b815260040160405180910390fd5b5f6121ac610b5a565b6040516370a0823160e01b81523060048201529091505f906001600160a01b038316906370a0823190602401602060405180830381865afa1580156121f3573d5f5f3e3d5ffd5b505050506040513d601f19601f820116820180604052508101906122179190613804565b905061222e6001600160a01b038316873087612cc0565b6040516370a0823160e01b81523060048201525f9082906001600160a01b038516906370a0823190602401602060405180830381865afa158015612274573d5f5f3e3d5ffd5b505050506040513d601f19601f820116820180604052508101906122989190613804565b6122a2919061389b565b90508481146122ce57604051633c0e360160e21b81526004810186905260248101829052604401610954565b6122d88685612cf6565b856001600160a01b0316876001600160a01b03167fdcbc1c05240f31ff3ad067ef1ee35ce4997762752e3a095284754544f4c709d78787604051612326929190918252602082015260400190565b60405180910390a350505050505050565b6123448383836001612d2a565b611b1e57604051635274afe760e01b81526001600160a01b0384166004820152602401610954565b805f03612377575050565b6001600160a01b0382165f90815260046020526040812054900361239e5761239e82611ce5565b6001600160a01b039091165f908152600460205260409020805482019055600780549091019055565b6002548181146123ea576040516311bf9f1160e11b815260040160405180910390fd5b5f5b81811015612432575f60038281548110612408576124086139f8565b5f9182526020808320909101546001600160a01b03168252600690526040812055506001016123ec565b5061243e60035f6133f6565b5f5b81811015612542575f84848381811061245b5761245b6139f8565b905060200201602081019061247091906134ae565b6001600160a01b0381165f9081526005602052604090205490915015806124ad57506001600160a01b0381165f9081526006602052604090205415155b156124cb576040516311bf9f1160e11b815260040160405180910390fd5b60038054600180820183555f929092527fc2575a0e9e593c00f959f8c92f12db2869c3395a3b0502d05e2516446f71f85b0180546001600160a01b0319166001600160a01b03841617905561252190839061382f565b6001600160a01b039091165f90815260066020526040902055600101612440565b507fb9f7d9905a2d92e4856345fd5fc28a5f88a73df1eb4c223f62fda936b5de06638383604051612574929190613a39565b60405180910390a1505050565b6001600160a01b0381165f9081526020819052604090205460ff16156125c55760405163254af64760e21b81526001600160a01b0382166004820152602401610954565b6001600160a01b0381165f81815260208190526040808220805460ff19166001908117909155805480820182559083527fb10e2d527612073b26eecdfd717e6a320cf44b4afac2b0732d9fcbe2b7fa0cf60180546001600160a01b03191684179055517f6b583e2e3ad2e182671d77905fee57b1ffd8ce2aa5c0b652ca029317919751a49190a250565b5f5f61265a8361168b565b90508085111561268357828582604051633fa733bb60e21b81526004016109549392919061387a565b5f61268d866108d6565b9050610e853386868985612d8c565b5f5f6126a783611694565b9050808511156126d057828582604051632e52afbb60e21b81526004016109549392919061387a565b5f6126da86610e0a565b9050610e85338686848a612d8c565b5f6108fd6126f882600a6139ea565b7f52c63247e1f47db19d5ce0460030c497f067ca4cebf71ba98eeadabe20bace0254612724919061382f565b61272c61076b565b611b0890600161382f565b5f61276461274483612df1565b801561275f57505f848061275a5761275a6138c5565b868809115b151590565b61276f868686612e1d565b610e85919061382f565b5f516020613bba5f395f51905f526001600160a01b0385166127b05760405163e602df0560e01b81525f6004820152602401610954565b6001600160a01b0384166127d957604051634a1406b160e11b81525f6004820152602401610954565b6001600160a01b038086165f9081526001830160209081526040808320938816835292905220839055811561285657836001600160a01b0316856001600160a01b03167f8c5be1e5ebec7d5bd14f71427d1e84f3dd0314c0f7b2291e5b200ac8c7c3b9258560405161284d91815260200190565b60405180910390a35b5050505050565b5f516020613bfa5f395f51905f5254600203610b9e57604051633ee5aeb560e01b815260040160405180910390fd5b6001600160a01b0381165f90815260066020526040812054908190036128b0575050565b5f6128bc60018361389b565b6003549091505f906128d09060019061389b565b9050815b8181101561297c575f60036128ea83600161382f565b815481106128fa576128fa6139f8565b5f91825260209091200154600380546001600160a01b039092169250829184908110612928576129286139f8565b5f91825260209091200180546001600160a01b0319166001600160a01b039290921691909117905561295b82600161382f565b6001600160a01b039091165f908152600660205260409020556001016128d4565b50600380548061298e5761298e613a0c565b5f828152602080822083015f1990810180546001600160a01b03191690559092019092556001600160a01b0395909516815260069094525050604082209190915550565b5f516020613bba5f395f51905f526001600160a01b038416612a0c5781816002015f828254612a01919061382f565b90915550612a699050565b6001600160a01b0384165f9081526020829052604090205482811015612a4b5784818460405163391434e360e21b81526004016109549392919061387a565b6001600160a01b0385165f9081526020839052604090209083900390555b6001600160a01b038316612a87576002810180548390039055612aa5565b6001600160a01b0383165f9081526020829052604090208054830190555b826001600160a01b0316846001600160a01b03167fddf252ad1be2c89b69c2b068fc378daa952ba7f163c4a11628f55a4df523b3ef84604051612aea91815260200190565b60405180910390a350505050565b5f516020613bda5f395f51905f525460ff16610b9e57604051638dfc202b60e01b815260040160405180910390fd5b612b2f612ecd565b610b9e57604051631afcd79f60e31b815260040160405180910390fd5b612b54612b27565b5f516020613bba5f395f51905f527f52c63247e1f47db19d5ce0460030c497f067ca4cebf71ba98eeadabe20bace03612b8d8482613ac9565b5060048101611cdf8382613ac9565b612ba4612b27565b7f0773e532dfede91f04b12a73d3d2acd361424f41f76b4fb79f090161e36b4e005f80612bd084612ee6565b9150915081612be0576012612be2565b805b83546001600160a81b031916600160a01b60ff92909216919091026001600160a01b031916176001600160a01b0394909416939093179091555050565b612c27612b27565b6001600160a01b03811661115657604051631e4fbdf760e01b81525f6004820152602401610954565b7f9016d09d72d40fdae2fd8ceac6b6234c7706214fd39c1cd1e609a0528c19930080546001600160a01b031981166001600160a01b03848116918217845560405192169182907f8be0079c531659141344cd1fd0a4f28419497f9722a3daafe3b4186f6b6457e0905f90a3505050565b612cce848484846001612f71565b611cdf57604051635274afe760e01b81526001600160a01b0385166004820152602401610954565b6001600160a01b038216612d1f5760405163ec442f0560e01b81525f6004820152602401610954565b6115275f83836129d2565b60405163a9059cbb60e01b5f8181526001600160a01b038616600452602485905291602083604481808b5af1925060015f51148316612d80578383151615612d74573d5f823e3d81fd5b5f873b113d1516831692505b60405250949350505050565b5f612d99836108e4611745565b9050612dad612da8828561382f565b612fde565b612dba8686868686613295565b8015612de957600854612de9906001600160a01b031682612dd9610b5a565b6001600160a01b03169190612337565b505050505050565b5f6002826003811115612e0657612e06613b84565b612e109190613b98565b60ff166001149050919050565b5f5f5f612e2a8686613334565b91509150815f03612e4e57838181612e4457612e446138c5565b04925050506108fd565b818411612e6557612e656003851502601118613350565b5f848688095f868103871696879004966002600389028118808a02820302808a02820302808a02820302808a02820302808a02820302808a02909103029181900381900460010185841190960395909502919093039390930492909217029150509392505050565b5f612ed6611f78565b54600160401b900460ff16919050565b5f5f5f612ef260405190565b6040805160048152602481019091526020810180516001600160e01b031663313ce56760e01b1790529091505f908190612f2d908790613361565b5091509150612f3b83604052565b818015612f49575060203d10155b8015612f56575060ff8111155b612f61575f5f612f65565b6001815b94509450505050915091565b6040516323b872dd60e01b5f8181526001600160a01b038781166004528616602452604485905291602083606481808c5af1925060015f51148316612fcd578383151615612fc1573d5f823e3d81fd5b5f883b113d1516831692505b604052505f60605295945050505050565b5f612fe7611745565b9050818110612ff4575050565b5f612fff828461389b565b90505f61300b60035490565b90505f5b81811015613267575f61302182613382565b6001600160a01b0381165f9081526004602052604081205491925081900361304d57505060010161300f565b5f85821061305b578561305d565b815b90505f613068610b5a565b6040516370a0823160e01b81523060048201526001600160a01b0391909116906370a0823190602401602060405180830381865afa1580156130ac573d5f5f3e3d5ffd5b505050506040513d601f19601f820116820180604052508101906130d09190613804565b60405163040b850f60e31b8152306004820152602481018490529091505f906001600160a01b0386169063205c2878906044016020604051808303815f875af115801561311f573d5f5f3e3d5ffd5b505050506040513d601f19601f820116820180604052508101906131439190613804565b90505f8261314f610b5a565b6040516370a0823160e01b81523060048201526001600160a01b0391909116906370a0823190602401602060405180830381865afa158015613193573d5f5f3e3d5ffd5b505050506040513d601f19601f820116820180604052508101906131b79190613804565b6131c1919061389b565b90508181146131e957858183604051635b1fc08360e01b81526004016109549392919061387a565b6131f38682611ef7565b856001600160a01b03167f619fbd66efbfaf8160311e4e743f5f6e3f156f9eab059f6f270a7a61e76e42f08260405161322e91815260200190565b60405180910390a288811061324a575050505050505050505050565b613254818a61389b565b985086600101965050505050505061300f565b5083613273838261389b565b60405163a17e11d560e01b815260048101929092526024820152604401610954565b826001600160a01b0316856001600160a01b0316146132b9576132b9838683611dae565b6132c383826133b0565b6132cd84836133e4565b826001600160a01b0316846001600160a01b0316866001600160a01b03167ffbde797d201c681b91056529119e0b02407c7bb96a4a2c75c01fc9667232c8db8585604051613325929190918252602082015260400190565b60405180910390a45050505050565b5f805f1983850993909202808410938190039390930393915050565b634e487b715f52806020526024601cfd5b5f5f5f60405f855160208701885afa92505f51915060205190509250925092565b5f60038281548110613396576133966139f8565b5f918252602090912001546001600160a01b031692915050565b6001600160a01b0382166133d957604051634b637e8f60e11b81525f6004820152602401610954565b611527825f836129d2565b6115276133ef610b5a565b8383612337565b5080545f8255905f5260205f209081019061115f91905b80821115613420575f815560010161340d565b5090565b602081525f82518060208401528060208501604085015e5f604082850101526040601f19601f83011684010191505092915050565b5f60208284031215613469575f5ffd5b5035919050565b6001600160a01b038116811461115f575f5ffd5b5f5f60408385031215613495575f5ffd5b82356134a081613470565b946020939093013593505050565b5f602082840312156134be575f5ffd5b81356108fd81613470565b5f5f5f606084860312156134db575f5ffd5b83356134e681613470565b925060208401356134f681613470565b929592945050506040919091013590565b602080825282518282018190525f918401906040840190835b818110156135475783516001600160a01b0316835260209384019390920191600101613520565b509095945050505050565b634e487b7160e01b5f52604160045260245ffd5b5f82601f830112613575575f5ffd5b813567ffffffffffffffff81111561358f5761358f613552565b604051601f8201601f19908116603f0116810167ffffffffffffffff811182821017156135be576135be613552565b6040528181528382016020018510156135d5575f5ffd5b816020850160208301375f918101602001919091529392505050565b5f5f5f5f60808587031215613604575f5ffd5b843561360f81613470565b9350602085013567ffffffffffffffff81111561362a575f5ffd5b61363687828801613566565b935050604085013567ffffffffffffffff811115613652575f5ffd5b61365e87828801613566565b925050606085013561366f81613470565b939692955090935050565b5f5f6040838503121561368b575f5ffd5b823561369681613470565b9150602083013561ffff811681146136ac575f5ffd5b809150509250929050565b5f5f604083850312156136c8575f5ffd5b8235915060208301356136ac81613470565b5f5f5f5f608085870312156136ed575f5ffd5b84356136f881613470565b9350602085013561370881613470565b9250604085013561371881613470565b9396929550929360600135925050565b5f5f60208385031215613739575f5ffd5b823567ffffffffffffffff81111561374f575f5ffd5b8301601f8101851361375f575f5ffd5b803567ffffffffffffffff811115613775575f5ffd5b8560208260051b8401011115613789575f5ffd5b6020919091019590945092505050565b5f5f5f606084860312156137ab575f5ffd5b8335925060208401356137bd81613470565b915060408401356137cd81613470565b809150509250925092565b5f5f604083850312156137e9575f5ffd5b82356137f481613470565b915060208301356136ac81613470565b5f60208284031215613814575f5ffd5b5051919050565b634e487b7160e01b5f52601160045260245ffd5b808201808211156108b9576108b961381b565b600181811c9082168061385657607f821691505b60208210810361387457634e487b7160e01b5f52602260045260245ffd5b50919050565b6001600160a01b039390931683526020830191909152604082015260600190565b818103818111156108b9576108b961381b565b80820281158282048414176108b9576108b961381b565b634e487b7160e01b5f52601260045260245ffd5b5f826138e7576138e76138c5565b500490565b5f602082840312156138fc575f5ffd5b81516108fd81613470565b6001815b6001841115613942578085048111156139265761392661381b565b600184161561393457908102905b60019390931c92800261390b565b935093915050565b5f82613958575060016108b9565b8161396457505f6108b9565b816001811461397a5760028114613984576139a0565b60019150506108b9565b60ff8411156139955761399561381b565b50506001821b6108b9565b5060208310610133831016604e8410600b84101617156139c3575081810a6108b9565b6139cf5f198484613907565b805f19048211156139e2576139e261381b565b029392505050565b5f6108fd60ff84168361394a565b634e487b7160e01b5f52603260045260245ffd5b634e487b7160e01b5f52603160045260245ffd5b60ff81811683821601908111156108b9576108b961381b565b602080825281018290525f8360408301825b85811015613a7b578235613a5e81613470565b6001600160a01b0316825260209283019290910190600101613a4b565b5095945050505050565b601f821115611b1e57805f5260205f20601f840160051c81016020851015613aaa5750805b601f840160051c820191505b81811015612856575f8155600101613ab6565b815167ffffffffffffffff811115613ae357613ae3613552565b613af781613af18454613842565b84613a85565b6020601f821160018114613b29575f8315613b125750848201515b5f19600385901b1c1916600184901b178455612856565b5f84815260208120601f198516915b82811015613b585787850151825560209485019460019092019101613b38565b5084821015613b7557868401515f19600387901b60f8161c191681555b50505050600190811b01905550565b634e487b7160e01b5f52602160045260245ffd5b5f60ff831680613baa57613baa6138c5565b8060ff8416069150509291505056fe52c63247e1f47db19d5ce0460030c497f067ca4cebf71ba98eeadabe20bace00cd5ed15c6e187e77e9aee88184c21f4f2182ab5827cb3b7e07fbedcd63f033009b779b17422d0df92223018b32b4d1fa46e071723d6817e2486d003becc55f00a2646970667358221220d737bfde8f51f4d0ce3e50c9f9a155cf4dad3684c7e8afec8c60277a2aa1331e64736f6c634300081c0033",
  "linkReferences": {},
  "deployedLinkReferences": {},
  "immutableReferences": {},
  "inputSourceName": "project/contracts/YieldPilotVault.sol",
  "buildInfoId": "solc-0_8_28-218f7588802aed9ce830494f103e967926850911"
}